{
  "address": "0x26a9AEDAD510B9099365172e1C38bB269CDe6Ee9",
  "abi": [
    {
      "inputs": [],
      "stateMutability": "nonpayable",
      "type": "constructor"
    },
    {
      "inputs": [
        {
          "internalType": "address",
          "name": "owner",
          "type": "address"
        }
      ],
      "name": "OwnableInvalidOwner",
      "type": "error"
    },
    {
      "inputs": [
        {
          "internalType": "address",
          "name": "account",
          "type": "address"
        }
      ],
      "name": "OwnableUnauthorizedAccount",
      "type": "error"
    },
    {
      "anonymous": false,
      "inputs": [
        {
          "indexed": true,
          "internalType": "address",
          "name": "curator",
          "type": "address"
        },
        {
          "indexed": false,
          "internalType": "uint256",
          "name": "timestamp",
          "type": "uint256"
        }
      ],
      "name": "CuratorAdded",
      "type": "event"
    },
    {
      "anonymous": false,
      "inputs": [
        {
          "indexed": true,
          "internalType": "address",
          "name": "curator",
          "type": "address"
        },
        {
          "indexed": false,
          "internalType": "uint256",
          "name": "timestamp",
          "type": "uint256"
        }
      ],
      "name": "CuratorRemoved",
      "type": "event"
    },
    {
      "anonymous": false,
      "inputs": [
        {
          "indexed": true,
          "internalType": "address",
          "name": "previousOwner",
          "type": "address"
        },
        {
          "indexed": true,
          "internalType": "address",
          "name": "newOwner",
          "type": "address"
        }
      ],
      "name": "OwnershipTransferred",
      "type": "event"
    },
    {
      "inputs": [
        {
          "internalType": "address",
          "name": "_curator",
          "type": "address"
        }
      ],
      "name": "addCurator",
      "outputs": [],
      "stateMutability": "nonpayable",
      "type": "function"
    },
    {
      "inputs": [
        {
          "internalType": "uint256",
          "name": "",
          "type": "uint256"
        }
      ],
      "name": "curators",
      "outputs": [
        {
          "internalType": "address",
          "name": "",
          "type": "address"
        }
      ],
      "stateMutability": "view",
      "type": "function"
    },
    {
      "inputs": [],
      "name": "getAllCurators",
      "outputs": [
        {
          "internalType": "address[]",
          "name": "",
          "type": "address[]"
        }
      ],
      "stateMutability": "view",
      "type": "function"
    },
    {
      "inputs": [],
      "name": "getCuratorCount",
      "outputs": [
        {
          "internalType": "uint256",
          "name": "",
          "type": "uint256"
        }
      ],
      "stateMutability": "view",
      "type": "function"
    },
    {
      "inputs": [
        {
          "internalType": "address",
          "name": "",
          "type": "address"
        }
      ],
      "name": "isCurator",
      "outputs": [
        {
          "internalType": "bool",
          "name": "",
          "type": "bool"
        }
      ],
      "stateMutability": "view",
      "type": "function"
    },
    {
      "inputs": [],
      "name": "owner",
      "outputs": [
        {
          "internalType": "address",
          "name": "",
          "type": "address"
        }
      ],
      "stateMutability": "view",
      "type": "function"
    },
    {
      "inputs": [
        {
          "internalType": "address",
          "name": "_curator",
          "type": "address"
        }
      ],
      "name": "removeCurator",
      "outputs": [],
      "stateMutability": "nonpayable",
      "type": "function"
    },
    {
      "inputs": [],
      "name": "renounceOwnership",
      "outputs": [],
      "stateMutability": "nonpayable",
      "type": "function"
    },
    {
      "inputs": [
        {
          "internalType": "address",
          "name": "newOwner",
          "type": "address"
        }
      ],
      "name": "transferOwnership",
      "outputs": [],
      "stateMutability": "nonpayable",
      "type": "function"
    }
  ],
  "transactionHash": "0x64b960004e18d14454a00bf7da609abf8204c10e44af83371981643c8ec1c410",
  "args": [],
  "numDeployments": 1,
  "solcInputHash": "84a53fbce6b5a6c4d5763013a22a6617",
  "bytecode": "0x608060405234801561001057600080fd5b50338061003757604051631e4fbdf760e01b81526000600482015260240160405180910390fd5b61004081610046565b50610096565b600080546001600160a01b038381166001600160a01b0319831681178455604051919092169283917f8be0079c531659141344cd1fd0a4f28419497f9722a3daafe3b4186f6b6457e09190a35050565b610731806100a56000396000f3fe608060405234801561001057600080fd5b50600436106100935760003560e01c80638da5cb5b116100665780638da5cb5b1461010657806398f25c441461012b578063c097c07f1461013e578063dff434341461014f578063f2fde38b1461016257600080fd5b806334f0e39e1461009857806338501df5146100ad5780636c7b79d4146100cb578063715018a6146100fe575b600080fd5b6100ab6100a6366004610612565b610175565b005b6100b5610306565b6040516100c29190610642565b60405180910390f35b6100ee6100d9366004610612565b60016020526000908152604090205460ff1681565b60405190151581526020016100c2565b6100ab610368565b6000546001600160a01b03165b6040516001600160a01b0390911681526020016100c2565b6100ab610139366004610612565b61037c565b6002546040519081526020016100c2565b61011361015d36600461068f565b61052d565b6100ab610170366004610612565b610557565b61017d610595565b6001600160a01b0381166101d85760405162461bcd60e51b815260206004820152601760248201527f496e76616c69642063757261746f72206164647265737300000000000000000060448201526064015b60405180910390fd5b6001600160a01b03811660009081526001602052604090205460ff161561023a5760405162461bcd60e51b815260206004820152601660248201527543757261746f7220616c72656164792065786973747360501b60448201526064016101cf565b6001600160a01b03811660008181526001602081905260408220805460ff191682179055600280548083018255928190527f405787fa12a823e0f2b7631cc41b3ba8828b3321ca811111fa75cd3aa3bb5ace90920180546001600160a01b031916909317909255546102ac91906106a8565b6001600160a01b038216600081815260036020526040908190209290925590517f8776991c91a32d448553835a322727bc3b570c033a9f64ee33aa6bf339ac5b21906102fb9042815260200190565b60405180910390a250565b6060600280548060200260200160405190810160405280929190818152602001828054801561035e57602002820191906000526020600020905b81546001600160a01b03168152600190910190602001808311610340575b5050505050905090565b610370610595565b61037a60006105c2565b565b610384610595565b6001600160a01b03811660009081526001602052604090205460ff166103e55760405162461bcd60e51b815260206004820152601660248201527510dd5c985d1bdc88191bd95cc81b9bdd08195e1a5cdd60521b60448201526064016101cf565b6001600160a01b0381166000908152600160208181526040808420805460ff19169055600390915282205460025490929161041f916106a8565b90508082146104a75760006002828154811061043d5761043d6106cf565b600091825260209091200154600280546001600160a01b03909216925082918590811061046c5761046c6106cf565b600091825260208083209190910180546001600160a01b0319166001600160a01b039485161790559290911681526003909152604090208290555b60028054806104b8576104b86106e5565b60008281526020808220600019908401810180546001600160a01b03191690559092019092556001600160a01b0385168083526003825260408084209390935591514281527f256ad18300de1ee5fb412f5b114a8442c115bb2570dc7e49caf15a5e0e646318910160405180910390a2505050565b6002818154811061053d57600080fd5b6000918252602090912001546001600160a01b0316905081565b61055f610595565b6001600160a01b03811661058957604051631e4fbdf760e01b8152600060048201526024016101cf565b610592816105c2565b50565b6000546001600160a01b0316331461037a5760405163118cdaa760e01b81523360048201526024016101cf565b600080546001600160a01b038381166001600160a01b0319831681178455604051919092169283917f8be0079c531659141344cd1fd0a4f28419497f9722a3daafe3b4186f6b6457e09190a35050565b60006020828403121561062457600080fd5b81356001600160a01b038116811461063b57600080fd5b9392505050565b6020808252825182820181905260009190848201906040850190845b818110156106835783516001600160a01b03168352928401929184019160010161065e565b50909695505050505050565b6000602082840312156106a157600080fd5b5035919050565b818103818111156106c957634e487b7160e01b600052601160045260246000fd5b92915050565b634e487b7160e01b600052603260045260246000fd5b634e487b7160e01b600052603160045260246000fdfea2646970667358221220e9b5e3f2faff8a1a8514a358c17fdc0f842f6d8b824327d548e6426c345af89e64736f6c63430008140033",
  "devdoc": {
    "details": "Smart contract untuk manajemen whitelist kurator",
    "errors": {
      "OwnableInvalidOwner(address)": [
        {
          "details": "The owner is not a valid owner account. (eg. `address(0)`)"
        }
      ],
      "OwnableUnauthorizedAccount(address)": [
        {
          "details": "The caller account is not authorized to perform an operation."
        }
      ]
    },
    "kind": "dev",
    "methods": {
      "addCurator(address)": {
        "details": "Menambahkan kurator baru ke whitelist",
        "params": {
          "_curator": "Address kurator yang akan ditambahkan"
        }
      },
      "constructor": {
        "details": "Constructor - set deployer sebagai owner"
      },
      "getAllCurators()": {
        "details": "Mendapatkan daftar semua kurator",
        "returns": {
          "_0": "Array address kurator"
        }
      },
      "getCuratorCount()": {
        "details": "Mendapatkan jumlah total kurator",
        "returns": {
          "_0": "Jumlah kurator yang terdaftar"
        }
      },
      "owner()": {
        "details": "Returns the address of the current owner."
      },
      "removeCurator(address)": {
        "details": "Menghapus kurator dari whitelist",
        "params": {
          "_curator": "Address kurator yang akan dihapus"
        }
      },
      "renounceOwnership()": {
        "details": "Leaves the contract without owner. It will not be possible to call `onlyOwner` functions. Can only be called by the current owner. NOTE: Renouncing ownership will leave the contract without an owner, thereby disabling any functionality that is only available to the owner."
      },
      "transferOwnership(address)": {
        "details": "Transfers ownership of the contract to a new account (`newOwner`). Can only be called by the current owner."
      }
    },
    "title": "CuratorRegistry",
    "version": 1
  },
  "userdoc": {
    "kind": "user",
    "methods": {},
    "notice": "Hanya owner (Kemenparekraf/Ekraf) yang bisa menambah/menghapus kurator",
    "version": 1
  },
  "storageLayout": {
    "storage": [
      {
        "astId": 8,
        "contract": "contracts/CuratorRegistry.sol:CuratorRegistry",
        "label": "_owner",
        "offset": 0,
        "slot": "0",
        "type": "t_address"
      },
      {
        "astId": 3104,
        "contract": "contracts/CuratorRegistry.sol:CuratorRegistry",
        "label": "isCurator",
        "offset": 0,
        "slot": "1",
        "type": "t_mapping(t_address,t_bool)"
      },
      {
        "astId": 3107,
        "contract": "contracts/CuratorRegistry.sol:CuratorRegistry",
        "label": "curators",
        "offset": 0,
        "slot": "2",
        "type": "t_array(t_address)dyn_storage"
      },
      {
        "astId": 3111,
        "contract": "contracts/CuratorRegistry.sol:CuratorRegistry",
        "label": "curatorIndex",
        "offset": 0,
        "slot": "3",
        "type": "t_mapping(t_address,t_uint256)"
      }
    ],
    "types": {
      "t_address": {
        "encoding": "inplace",
        "label": "address",
        "numberOfBytes": "20"
      },
      "t_array(t_address)dyn_storage": {
        "base": "t_address",
        "encoding": "dynamic_array",
        "label": "address[]",
        "numberOfBytes": "32"
      },
      "t_bool": {
        "encoding": "inplace",
        "label": "bool",
        "numberOfBytes": "1"
      },
      "t_mapping(t_address,t_bool)": {
        "encoding": "mapping",
        "key": "t_address",
        "label": "mapping(address => bool)",
        "numberOfBytes": "32",
        "value": "t_bool"
      },
      "t_mapping(t_address,t_uint256)": {
        "encoding": "mapping",
        "key": "t_address",
        "label": "mapping(address => uint256)",
        "numberOfBytes": "32",
        "value": "t_uint256"
      },
      "t_uint256": {
        "encoding": "inplace",
        "label": "uint256",
        "numberOfBytes": "32"
      }
    }
  }
}