{
  "address": "0x3267cfe29ba07b196A9ffb69D59b17985AD89531",
  "abi": [
    {
      "inputs": [
        {
          "internalType": "address",
          "name": "_curatorRegistry",
          "type": "address"
        }
      ],
      "stateMutability": "nonpayable",
      "type": "constructor"
    },
    {
      "inputs": [
        {
          "internalType": "address",
          "name": "sender",
          "type": "address"
        },
        {
          "internalType": "uint256",
          "name": "tokenId",
          "type": "uint256"
        },
        {
          "internalType": "address",
          "name": "owner",
          "type": "address"
        }
      ],
      "name": "ERC721IncorrectOwner",
      "type": "error"
    },
    {
      "inputs": [
        {
          "internalType": "address",
          "name": "operator",
          "type": "address"
        },
        {
          "internalType": "uint256",
          "name": "tokenId",
          "type": "uint256"
        }
      ],
      "name": "ERC721InsufficientApproval",
      "type": "error"
    },
    {
      "inputs": [
        {
          "internalType": "address",
          "name": "approver",
          "type": "address"
        }
      ],
      "name": "ERC721InvalidApprover",
      "type": "error"
    },
    {
      "inputs": [
        {
          "internalType": "address",
          "name": "operator",
          "type": "address"
        }
      ],
      "name": "ERC721InvalidOperator",
      "type": "error"
    },
    {
      "inputs": [
        {
          "internalType": "address",
          "name": "owner",
          "type": "address"
        }
      ],
      "name": "ERC721InvalidOwner",
      "type": "error"
    },
    {
      "inputs": [
        {
          "internalType": "address",
          "name": "receiver",
          "type": "address"
        }
      ],
      "name": "ERC721InvalidReceiver",
      "type": "error"
    },
    {
      "inputs": [
        {
          "internalType": "address",
          "name": "sender",
          "type": "address"
        }
      ],
      "name": "ERC721InvalidSender",
      "type": "error"
    },
    {
      "inputs": [
        {
          "internalType": "uint256",
          "name": "tokenId",
          "type": "uint256"
        }
      ],
      "name": "ERC721NonexistentToken",
      "type": "error"
    },
    {
      "anonymous": false,
      "inputs": [
        {
          "indexed": true,
          "internalType": "address",
          "name": "owner",
          "type": "address"
        },
        {
          "indexed": true,
          "internalType": "address",
          "name": "approved",
          "type": "address"
        },
        {
          "indexed": true,
          "internalType": "uint256",
          "name": "tokenId",
          "type": "uint256"
        }
      ],
      "name": "Approval",
      "type": "event"
    },
    {
      "anonymous": false,
      "inputs": [
        {
          "indexed": true,
          "internalType": "address",
          "name": "owner",
          "type": "address"
        },
        {
          "indexed": true,
          "internalType": "address",
          "name": "operator",
          "type": "address"
        },
        {
          "indexed": false,
          "internalType": "bool",
          "name": "approved",
          "type": "bool"
        }
      ],
      "name": "ApprovalForAll",
      "type": "event"
    },
    {
      "anonymous": false,
      "inputs": [
        {
          "indexed": false,
          "internalType": "uint256",
          "name": "_fromTokenId",
          "type": "uint256"
        },
        {
          "indexed": false,
          "internalType": "uint256",
          "name": "_toTokenId",
          "type": "uint256"
        }
      ],
      "name": "BatchMetadataUpdate",
      "type": "event"
    },
    {
      "anonymous": false,
      "inputs": [
        {
          "indexed": false,
          "internalType": "uint256",
          "name": "_tokenId",
          "type": "uint256"
        }
      ],
      "name": "MetadataUpdate",
      "type": "event"
    },
    {
      "anonymous": false,
      "inputs": [
        {
          "indexed": true,
          "internalType": "bytes32",
          "name": "requestId",
          "type": "bytes32"
        },
        {
          "indexed": true,
          "internalType": "uint256",
          "name": "tokenId",
          "type": "uint256"
        },
        {
          "indexed": true,
          "internalType": "address",
          "name": "curator",
          "type": "address"
        },
        {
          "indexed": false,
          "internalType": "address",
          "name": "artisan",
          "type": "address"
        },
        {
          "indexed": false,
          "internalType": "uint256",
          "name": "timestamp",
          "type": "uint256"
        }
      ],
      "name": "MintApproved",
      "type": "event"
    },
    {
      "anonymous": false,
      "inputs": [
        {
          "indexed": true,
          "internalType": "bytes32",
          "name": "requestId",
          "type": "bytes32"
        },
        {
          "indexed": true,
          "internalType": "address",
          "name": "curator",
          "type": "address"
        },
        {
          "indexed": false,
          "internalType": "string",
          "name": "reason",
          "type": "string"
        },
        {
          "indexed": false,
          "internalType": "uint256",
          "name": "timestamp",
          "type": "uint256"
        }
      ],
      "name": "MintRejected",
      "type": "event"
    },
    {
      "anonymous": false,
      "inputs": [
        {
          "indexed": true,
          "internalType": "bytes32",
          "name": "requestId",
          "type": "bytes32"
        },
        {
          "indexed": true,
          "internalType": "address",
          "name": "artisan",
          "type": "address"
        },
        {
          "indexed": true,
          "internalType": "address",
          "name": "submittedBy",
          "type": "address"
        },
        {
          "indexed": false,
          "internalType": "string",
          "name": "regionCode",
          "type": "string"
        },
        {
          "indexed": false,
          "internalType": "string",
          "name": "ipfsHash",
          "type": "string"
        },
        {
          "indexed": false,
          "internalType": "uint256",
          "name": "timestamp",
          "type": "uint256"
        }
      ],
      "name": "MintRequested",
      "type": "event"
    },
    {
      "anonymous": false,
      "inputs": [
        {
          "indexed": true,
          "internalType": "address",
          "name": "from",
          "type": "address"
        },
        {
          "indexed": true,
          "internalType": "address",
          "name": "to",
          "type": "address"
        },
        {
          "indexed": true,
          "internalType": "uint256",
          "name": "tokenId",
          "type": "uint256"
        }
      ],
      "name": "Transfer",
      "type": "event"
    },
    {
      "inputs": [
        {
          "internalType": "address",
          "name": "to",
          "type": "address"
        },
        {
          "internalType": "uint256",
          "name": "tokenId",
          "type": "uint256"
        }
      ],
      "name": "approve",
      "outputs": [],
      "stateMutability": "nonpayable",
      "type": "function"
    },
    {
      "inputs": [
        {
          "internalType": "bytes32",
          "name": "requestId",
          "type": "bytes32"
        }
      ],
      "name": "approveMint",
      "outputs": [],
      "stateMutability": "nonpayable",
      "type": "function"
    },
    {
      "inputs": [
        {
          "internalType": "address",
          "name": "owner",
          "type": "address"
        }
      ],
      "name": "balanceOf",
      "outputs": [
        {
          "internalType": "uint256",
          "name": "",
          "type": "uint256"
        }
      ],
      "stateMutability": "view",
      "type": "function"
    },
    {
      "inputs": [],
      "name": "curatorRegistry",
      "outputs": [
        {
          "internalType": "contract CuratorRegistry",
          "name": "",
          "type": "address"
        }
      ],
      "stateMutability": "view",
      "type": "function"
    },
    {
      "inputs": [
        {
          "internalType": "uint256",
          "name": "tokenId",
          "type": "uint256"
        }
      ],
      "name": "getApproved",
      "outputs": [
        {
          "internalType": "address",
          "name": "",
          "type": "address"
        }
      ],
      "stateMutability": "view",
      "type": "function"
    },
    {
      "inputs": [
        {
          "internalType": "bytes32",
          "name": "requestId",
          "type": "bytes32"
        }
      ],
      "name": "getMintRequest",
      "outputs": [
        {
          "internalType": "address",
          "name": "artisan",
          "type": "address"
        },
        {
          "internalType": "string",
          "name": "regionCode",
          "type": "string"
        },
        {
          "internalType": "string",
          "name": "category",
          "type": "string"
        },
        {
          "internalType": "string",
          "name": "ipfsHash",
          "type": "string"
        },
        {
          "internalType": "address",
          "name": "submittedBy",
          "type": "address"
        },
        {
          "internalType": "uint256",
          "name": "submittedAt",
          "type": "uint256"
        }
      ],
      "stateMutability": "view",
      "type": "function"
    },
    {
      "inputs": [],
      "name": "getPendingRequestCount",
      "outputs": [
        {
          "internalType": "uint256",
          "name": "",
          "type": "uint256"
        }
      ],
      "stateMutability": "view",
      "type": "function"
    },
    {
      "inputs": [],
      "name": "getPendingRequests",
      "outputs": [
        {
          "internalType": "bytes32[]",
          "name": "",
          "type": "bytes32[]"
        }
      ],
      "stateMutability": "view",
      "type": "function"
    },
    {
      "inputs": [
        {
          "internalType": "uint256",
          "name": "tokenId",
          "type": "uint256"
        }
      ],
      "name": "getTokenMetadata",
      "outputs": [
        {
          "internalType": "string",
          "name": "regionCode",
          "type": "string"
        },
        {
          "internalType": "address",
          "name": "artisanAddress",
          "type": "address"
        },
        {
          "internalType": "address",
          "name": "curatorAddress",
          "type": "address"
        },
        {
          "internalType": "uint256",
          "name": "timestamp",
          "type": "uint256"
        },
        {
          "internalType": "string",
          "name": "category",
          "type": "string"
        }
      ],
      "stateMutability": "view",
      "type": "function"
    },
    {
      "inputs": [
        {
          "internalType": "address",
          "name": "owner",
          "type": "address"
        },
        {
          "internalType": "address",
          "name": "operator",
          "type": "address"
        }
      ],
      "name": "isApprovedForAll",
      "outputs": [
        {
          "internalType": "bool",
          "name": "",
          "type": "bool"
        }
      ],
      "stateMutability": "view",
      "type": "function"
    },
    {
      "inputs": [
        {
          "internalType": "bytes32",
          "name": "",
          "type": "bytes32"
        }
      ],
      "name": "mintRequests",
      "outputs": [
        {
          "internalType": "address",
          "name": "artisan",
          "type": "address"
        },
        {
          "internalType": "string",
          "name": "regionCode",
          "type": "string"
        },
        {
          "internalType": "string",
          "name": "category",
          "type": "string"
        },
        {
          "internalType": "string",
          "name": "ipfsHash",
          "type": "string"
        },
        {
          "internalType": "address",
          "name": "submittedBy",
          "type": "address"
        },
        {
          "internalType": "uint256",
          "name": "submittedAt",
          "type": "uint256"
        },
        {
          "internalType": "bool",
          "name": "exists",
          "type": "bool"
        }
      ],
      "stateMutability": "view",
      "type": "function"
    },
    {
      "inputs": [],
      "name": "name",
      "outputs": [
        {
          "internalType": "string",
          "name": "",
          "type": "string"
        }
      ],
      "stateMutability": "view",
      "type": "function"
    },
    {
      "inputs": [
        {
          "internalType": "uint256",
          "name": "tokenId",
          "type": "uint256"
        }
      ],
      "name": "ownerOf",
      "outputs": [
        {
          "internalType": "address",
          "name": "",
          "type": "address"
        }
      ],
      "stateMutability": "view",
      "type": "function"
    },
    {
      "inputs": [
        {
          "internalType": "uint256",
          "name": "",
          "type": "uint256"
        }
      ],
      "name": "pendingRequestIds",
      "outputs": [
        {
          "internalType": "bytes32",
          "name": "",
          "type": "bytes32"
        }
      ],
      "stateMutability": "view",
      "type": "function"
    },
    {
      "inputs": [
        {
          "internalType": "bytes32",
          "name": "requestId",
          "type": "bytes32"
        },
        {
          "internalType": "string",
          "name": "reason",
          "type": "string"
        }
      ],
      "name": "rejectMint",
      "outputs": [],
      "stateMutability": "nonpayable",
      "type": "function"
    },
    {
      "inputs": [
        {
          "internalType": "address",
          "name": "artisan",
          "type": "address"
        },
        {
          "internalType": "string",
          "name": "regionCode",
          "type": "string"
        },
        {
          "internalType": "string",
          "name": "category",
          "type": "string"
        },
        {
          "internalType": "string",
          "name": "ipfsHash",
          "type": "string"
        }
      ],
      "name": "requestMint",
      "outputs": [
        {
          "internalType": "bytes32",
          "name": "requestId",
          "type": "bytes32"
        }
      ],
      "stateMutability": "nonpayable",
      "type": "function"
    },
    {
      "inputs": [
        {
          "internalType": "address",
          "name": "from",
          "type": "address"
        },
        {
          "internalType": "address",
          "name": "to",
          "type": "address"
        },
        {
          "internalType": "uint256",
          "name": "tokenId",
          "type": "uint256"
        }
      ],
      "name": "safeTransferFrom",
      "outputs": [],
      "stateMutability": "nonpayable",
      "type": "function"
    },
    {
      "inputs": [
        {
          "internalType": "address",
          "name": "from",
          "type": "address"
        },
        {
          "internalType": "address",
          "name": "to",
          "type": "address"
        },
        {
          "internalType": "uint256",
          "name": "tokenId",
          "type": "uint256"
        },
        {
          "internalType": "bytes",
          "name": "data",
          "type": "bytes"
        }
      ],
      "name": "safeTransferFrom",
      "outputs": [],
      "stateMutability": "nonpayable",
      "type": "function"
    },
    {
      "inputs": [
        {
          "internalType": "address",
          "name": "operator",
          "type": "address"
        },
        {
          "internalType": "bool",
          "name": "approved",
          "type": "bool"
        }
      ],
      "name": "setApprovalForAll",
      "outputs": [],
      "stateMutability": "nonpayable",
      "type": "function"
    },
    {
      "inputs": [
        {
          "internalType": "bytes4",
          "name": "interfaceId",
          "type": "bytes4"
        }
      ],
      "name": "supportsInterface",
      "outputs": [
        {
          "internalType": "bool",
          "name": "",
          "type": "bool"
        }
      ],
      "stateMutability": "view",
      "type": "function"
    },
    {
      "inputs": [],
      "name": "symbol",
      "outputs": [
        {
          "internalType": "string",
          "name": "",
          "type": "string"
        }
      ],
      "stateMutability": "view",
      "type": "function"
    },
    {
      "inputs": [
        {
          "internalType": "uint256",
          "name": "",
          "type": "uint256"
        }
      ],
      "name": "tokenMetadata",
      "outputs": [
        {
          "internalType": "string",
          "name": "regionCode",
          "type": "string"
        },
        {
          "internalType": "address",
          "name": "artisanAddress",
          "type": "address"
        },
        {
          "internalType": "address",
          "name": "curatorAddress",
          "type": "address"
        },
        {
          "internalType": "uint256",
          "name": "timestamp",
          "type": "uint256"
        },
        {
          "internalType": "string",
          "name": "category",
          "type": "string"
        }
      ],
      "stateMutability": "view",
      "type": "function"
    },
    {
      "inputs": [
        {
          "internalType": "uint256",
          "name": "tokenId",
          "type": "uint256"
        }
      ],
      "name": "tokenURI",
      "outputs": [
        {
          "internalType": "string",
          "name": "",
          "type": "string"
        }
      ],
      "stateMutability": "view",
      "type": "function"
    },
    {
      "inputs": [],
      "name": "totalSupply",
      "outputs": [
        {
          "internalType": "uint256",
          "name": "",
          "type": "uint256"
        }
      ],
      "stateMutability": "view",
      "type": "function"
    },
    {
      "inputs": [
        {
          "internalType": "address",
          "name": "from",
          "type": "address"
        },
        {
          "internalType": "address",
          "name": "to",
          "type": "address"
        },
        {
          "internalType": "uint256",
          "name": "tokenId",
          "type": "uint256"
        }
      ],
      "name": "transferFrom",
      "outputs": [],
      "stateMutability": "nonpayable",
      "type": "function"
    }
  ],
  "transactionHash": "0xf285dc6cf2e5f6c88d90a01af30d829ced60bbef2b31fbfb37c2ed684444bccf",
  "args": [
    "0x26a9AEDAD510B9099365172e1C38bB269CDe6Ee9"
  ],
  "numDeployments": 1,
  "solcInputHash": "84a53fbce6b5a6c4d5763013a22a6617",
  "bytecode": "0x60806040523480156200001157600080fd5b5060405162002d0d38038062002d0d83398101604081905262000034916200012b565b6040518060400160405280601481526020017f496e646f6e657369616e43726166744173736574000000000000000000000000815250604051806040016040528060048152602001634943415360e01b815250816000908162000098919062000202565b506001620000a7828262000202565b5050506001600160a01b038116620001055760405162461bcd60e51b815260206004820152601860248201527f496e76616c696420726567697374727920616464726573730000000000000000604482015260640160405180910390fd5b600880546001600160a01b0319166001600160a01b0392909216919091179055620002ce565b6000602082840312156200013e57600080fd5b81516001600160a01b03811681146200015657600080fd5b9392505050565b634e487b7160e01b600052604160045260246000fd5b600181811c908216806200018857607f821691505b602082108103620001a957634e487b7160e01b600052602260045260246000fd5b50919050565b601f821115620001fd57600081815260208120601f850160051c81016020861015620001d85750805b601f850160051c820191505b81811015620001f957828155600101620001e4565b5050505b505050565b81516001600160401b038111156200021e576200021e6200015d565b62000236816200022f845462000173565b84620001af565b602080601f8311600181146200026e5760008415620002555750858301515b600019600386901b1c1916600185901b178555620001f9565b600085815260208120601f198616915b828110156200029f578886015182559484019460019091019084016200027e565b5085821015620002be5787850151600019600388901b60f8161c191681555b5050505050600190811b01905550565b612a2f80620002de6000396000f3fe608060405234801561001057600080fd5b50600436106101735760003560e01c80636f1617c8116100de5780639833157411610097578063b88d4fde11610071578063b88d4fde14610364578063bc0ed30d14610377578063c87b56dd1461037f578063e985e9c51461039257600080fd5b8063983315741461032b578063a22cb4651461033e578063b72d8ce91461035157600080fd5b80636f1617c8146102c257806370a08231146102d557806371e8d4f1146102e857806380a1f712146102fb578063875bb45b1461031057806395d89b411461032357600080fd5b8063235d8dd311610130578063235d8dd31461022d57806323b872dd1461025257806342842e0e1461026557806360316801146102785780636352211e1461029c5780636914db60146102af57600080fd5b806301ffc9a71461017857806306fdde03146101a0578063081812fc146101b5578063095ea7b3146101e05780630d39e46d146101f557806318160ddd1461021b575b600080fd5b61018b61018636600461215e565b6103a5565b60405190151581526020015b60405180910390f35b6101a86103d0565b60405161019791906121cb565b6101c86101c33660046121de565b610462565b6040516001600160a01b039091168152602001610197565b6101f36101ee366004612213565b61048b565b005b6102086102033660046121de565b61049a565b604051610197979695949392919061223d565b6007545b604051908152602001610197565b61024061023b3660046121de565b610686565b604051610197969594939291906122a8565b6101f3610260366004612307565b610914565b6101f3610273366004612307565b61099f565b61028b6102863660046121de565b6109bf565b604051610197959493929190612343565b6101c86102aa3660046121de565b610bc7565b61028b6102bd3660046121de565b610bd2565b6101f36102d036600461243e565b610d21565b61021f6102e3366004612485565b610e54565b61021f6102f63660046124a0565b610e9c565b6103036111aa565b6040516101979190612539565b61021f61031e3660046121de565b611201565b6101a8611222565b6008546101c8906001600160a01b031681565b6101f361034c36600461258b565b611231565b6101f361035f3660046121de565b61123c565b6101f36103723660046125c2565b61168e565b600b5461021f565b6101a861038d3660046121de565b6116a5565b61018b6103a0366004612632565b6117b6565b60006001600160e01b03198216632483248360e11b14806103ca57506103ca826117e4565b92915050565b6060600080546103df90612665565b80601f016020809104026020016040519081016040528092919081815260200182805461040b90612665565b80156104585780601f1061042d57610100808354040283529160200191610458565b820191906000526020600020905b81548152906001019060200180831161043b57829003601f168201915b5050505050905090565b600061046d82611834565b506000828152600460205260409020546001600160a01b03166103ca565b61049682823361186d565b5050565b600a60205260009081526040902080546001820180546001600160a01b0390921692916104c690612665565b80601f01602080910402602001604051908101604052809291908181526020018280546104f290612665565b801561053f5780601f106105145761010080835404028352916020019161053f565b820191906000526020600020905b81548152906001019060200180831161052257829003601f168201915b50505050509080600201805461055490612665565b80601f016020809104026020016040519081016040528092919081815260200182805461058090612665565b80156105cd5780601f106105a2576101008083540402835291602001916105cd565b820191906000526020600020905b8154815290600101906020018083116105b057829003601f168201915b5050505050908060030180546105e290612665565b80601f016020809104026020016040519081016040528092919081815260200182805461060e90612665565b801561065b5780601f106106305761010080835404028352916020019161065b565b820191906000526020600020905b81548152906001019060200180831161063e57829003601f168201915b505050506004830154600584015460069094015492936001600160a01b039091169290915060ff1687565b6000818152600a6020526040812060060154606090819081908490819060ff166106cb5760405162461bcd60e51b81526004016106c29061269f565b60405180910390fd5b6000878152600a60209081526040808320815160e0810190925280546001600160a01b03168252600181018054929391929184019161070990612665565b80601f016020809104026020016040519081016040528092919081815260200182805461073590612665565b80156107825780601f1061075757610100808354040283529160200191610782565b820191906000526020600020905b81548152906001019060200180831161076557829003601f168201915b5050505050815260200160028201805461079b90612665565b80601f01602080910402602001604051908101604052809291908181526020018280546107c790612665565b80156108145780601f106107e957610100808354040283529160200191610814565b820191906000526020600020905b8154815290600101906020018083116107f757829003601f168201915b5050505050815260200160038201805461082d90612665565b80601f016020809104026020016040519081016040528092919081815260200182805461085990612665565b80156108a65780601f1061087b576101008083540402835291602001916108a6565b820191906000526020600020905b81548152906001019060200180831161088957829003601f168201915b505050918352505060048201546001600160a01b0316602080830191909152600583015460408084019190915260069093015460ff1615156060928301528351908401519284015191840151608085015160a090950151919d939c50919a5090985091965090945092505050565b6001600160a01b03821661093e57604051633250574960e11b8152600060048201526024016106c2565b600061094b83833361187a565b9050836001600160a01b0316816001600160a01b031614610999576040516364283d7b60e01b81526001600160a01b03808616600483015260248201849052821660448201526064016106c2565b50505050565b6109ba8383836040518060200160405280600081525061168e565b505050565b60606000808083816109e6876000908152600260205260409020546001600160a01b031690565b6001600160a01b031603610a335760405162461bcd60e51b8152602060048201526014602482015273151bdad95b88191bd95cc81b9bdd08195e1a5cdd60621b60448201526064016106c2565b600086815260096020526040808220815160a08101909252805482908290610a5a90612665565b80601f0160208091040260200160405190810160405280929190818152602001828054610a8690612665565b8015610ad35780601f10610aa857610100808354040283529160200191610ad3565b820191906000526020600020905b815481529060010190602001808311610ab657829003601f168201915b505050918352505060018201546001600160a01b039081166020830152600283015416604082015260038201546060820152600482018054608090920191610b1a90612665565b80601f0160208091040260200160405190810160405280929190818152602001828054610b4690612665565b8015610b935780601f10610b6857610100808354040283529160200191610b93565b820191906000526020600020905b815481529060010190602001808311610b7657829003601f168201915b5050509190925250508151602083015160408401516060850151608090950151929c919b5099509297509550909350505050565b60006103ca82611834565b600960205260009081526040902080548190610bed90612665565b80601f0160208091040260200160405190810160405280929190818152602001828054610c1990612665565b8015610c665780601f10610c3b57610100808354040283529160200191610c66565b820191906000526020600020905b815481529060010190602001808311610c4957829003601f168201915b5050505060018301546002840154600385015460048601805495966001600160a01b03948516969490931694509092610c9e90612665565b80601f0160208091040260200160405190810160405280929190818152602001828054610cca90612665565b8015610d175780601f10610cec57610100808354040283529160200191610d17565b820191906000526020600020905b815481529060010190602001808311610cfa57829003601f168201915b5050505050905085565b600854604051631b1ede7560e21b81523360048201526001600160a01b0390911690636c7b79d490602401602060405180830381865afa158015610d69573d6000803e3d6000fd5b505050506040513d601f19601f82011682018060405250810190610d8d91906126ca565b610dd25760405162461bcd60e51b81526020600482015260166024820152752737ba1030903b32b934b334b2b21031bab930ba37b960511b60448201526064016106c2565b6000828152600a602052604090206006015460ff16610e035760405162461bcd60e51b81526004016106c29061269f565b610e0c82611973565b336001600160a01b0316827f3f9f3ff1eef3e56daf608424aa7f8d3dd8179952500330254db6adf11bc140db8342604051610e489291906126e7565b60405180910390a35050565b60006001600160a01b038216610e80576040516322718ad960e21b8152600060048201526024016106c2565b506001600160a01b031660009081526003602052604090205490565b60006001600160a01b038516610ef45760405162461bcd60e51b815260206004820152601760248201527f496e76616c6964206172746973616e206164647265737300000000000000000060448201526064016106c2565b6000845111610f3c5760405162461bcd60e51b8152602060048201526014602482015273149959da5bdb8818dbd919481c995c5d5a5c995960621b60448201526064016106c2565b6000825111610f825760405162461bcd60e51b815260206004820152601260248201527112541194c81a185cda081c995c5d5a5c995960721b60448201526064016106c2565b848484843342600754604051602001610fa19796959493929190612709565b60408051601f1981840301815291815281516020928301206000818152600a90935291206006015490915060ff16156110155760405162461bcd60e51b81526020600482015260166024820152755265717565737420616c72656164792065786973747360501b60448201526064016106c2565b6040805160e0810182526001600160a01b0387811682526020808301888152838501889052606084018790523360808501524260a0850152600160c085018190526000878152600a90935294909120835181546001600160a01b031916931692909217825551919290919082019061108d90826127dd565b50604082015160028201906110a290826127dd565b50606082015160038201906110b790826127dd565b5060808201516004820180546001600160a01b0319166001600160a01b0390921691909117905560a0820151600582015560c0909101516006909101805460ff1916911515919091179055600b80546001818101835560008390527f0175b7a638427703f0dbe7bb9bbf987a2551717b34e79f33b5b1008d1fa01db9909101839055905461114591906128b3565b6000828152600c602052604090819020919091555133906001600160a01b0387169083907f50e26f90aa76adb9c485de4f532dd77057778696ca5cbdf5b32c924970532f579061119a908990889042906128c6565b60405180910390a4949350505050565b6060600b80548060200260200160405190810160405280929190818152602001828054801561045857602002820191906000526020600020905b8154815260200190600101908083116111e4575050505050905090565b600b818154811061121157600080fd5b600091825260209091200154905081565b6060600180546103df90612665565b610496338383611a97565b600854604051631b1ede7560e21b81523360048201526001600160a01b0390911690636c7b79d490602401602060405180830381865afa158015611284573d6000803e3d6000fd5b505050506040513d601f19601f820116820180604052508101906112a891906126ca565b6112ed5760405162461bcd60e51b81526020600482015260166024820152752737ba1030903b32b934b334b2b21031bab930ba37b960511b60448201526064016106c2565b6000818152600a602052604090206006015460ff1661131e5760405162461bcd60e51b81526004016106c29061269f565b6000818152600a60209081526040808320815160e0810190925280546001600160a01b03168252600181018054929391929184019161135c90612665565b80601f016020809104026020016040519081016040528092919081815260200182805461138890612665565b80156113d55780601f106113aa576101008083540402835291602001916113d5565b820191906000526020600020905b8154815290600101906020018083116113b857829003601f168201915b505050505081526020016002820180546113ee90612665565b80601f016020809104026020016040519081016040528092919081815260200182805461141a90612665565b80156114675780601f1061143c57610100808354040283529160200191611467565b820191906000526020600020905b81548152906001019060200180831161144a57829003601f168201915b5050505050815260200160038201805461148090612665565b80601f01602080910402602001604051908101604052809291908181526020018280546114ac90612665565b80156114f95780601f106114ce576101008083540402835291602001916114f9565b820191906000526020600020905b8154815290600101906020018083116114dc57829003601f168201915b505050918352505060048201546001600160a01b031660208201526005820154604082015260069091015460ff161515606090910152600780549192506000611541836128fc565b909155505060075481516115559082611b36565b6000826060015160405160200161156c9190612915565b60405160208183030381529060405290506115878282611b50565b6040805160a081018252602080860151825285516001600160a01b03168183015233828401524260608301528583015160808301526000858152600990915291909120815181906115d890826127dd565b5060208201516001820180546001600160a01b039283166001600160a01b0319918216179091556040840151600284018054919093169116179055606082015160038201556080820151600482019061163190826127dd565b5090505061163e84611973565b8251604080516001600160a01b0390921682524260208301523391849187917f12a27cc251e4195d2297867d9f73eff01c3a21927e8d9eaa4c1e97f3ddcf004e910160405180910390a450505050565b611699848484610914565b61099984848484611ba0565b60606116b082611834565b50600082815260066020526040812080546116ca90612665565b80601f01602080910402602001604051908101604052809291908181526020018280546116f690612665565b80156117435780601f1061171857610100808354040283529160200191611743565b820191906000526020600020905b81548152906001019060200180831161172657829003601f168201915b50505050509050600061176160408051602081019091526000815290565b90508051600003611773575092915050565b8151156117a557808260405160200161178d929190612944565b60405160208183030381529060405292505050919050565b6117ae84611cc9565b949350505050565b6001600160a01b03918216600090815260056020908152604080832093909416825291909152205460ff1690565b60006001600160e01b031982166380ac58cd60e01b148061181557506001600160e01b03198216635b5e139f60e01b145b806103ca57506301ffc9a760e01b6001600160e01b03198316146103ca565b6000818152600260205260408120546001600160a01b0316806103ca57604051637e27328960e01b8152600481018490526024016106c2565b6109ba8383836001611d3e565b6000828152600260205260408120546001600160a01b03908116908316156118a7576118a7818486611e44565b6001600160a01b038116156118e5576118c4600085600080611d3e565b6001600160a01b038116600090815260036020526040902080546000190190555b6001600160a01b03851615611914576001600160a01b0385166000908152600360205260409020805460010190555b60008481526002602052604080822080546001600160a01b0319166001600160a01b0389811691821790925591518793918516917fddf252ad1be2c89b69c2b068fc378daa952ba7f163c4a11628f55a4df523b3ef91a4949350505050565b6000818152600c6020526040812054600b54909190611994906001906128b3565b90508082146119f3576000600b82815481106119b2576119b2612973565b9060005260206000200154905080600b84815481106119d3576119d3612973565b6000918252602080832090910192909255918252600c9052604090208290555b600b805480611a0457611a04612989565b600082815260208082208301600019908101839055909201909255848252600c81526040808320839055600a909152812080546001600160a01b031916815590611a5160018301826120f2565b611a5f6002830160006120f2565b611a6d6003830160006120f2565b506004810180546001600160a01b031916905560006005820155600601805460ff19169055505050565b6001600160a01b038216611ac957604051630b61174360e31b81526001600160a01b03831660048201526024016106c2565b6001600160a01b03838116600081815260056020908152604080832094871680845294825291829020805460ff191686151590811790915591519182527f17307eab39ab6107e8899845ad3d59bd9653f200f220920489ca2b5937696c31910160405180910390a3505050565b610496828260405180602001604052806000815250611ea8565b6000828152600660205260409020611b6882826127dd565b506040518281527ff8e1a15aba9398e019f0b49df1a4fde98ee17ae345cb5f6b5e2c27f5033e8ce79060200160405180910390a15050565b6001600160a01b0383163b1561099957604051630a85bd0160e11b81526001600160a01b0384169063150b7a0290611be290339088908790879060040161299f565b6020604051808303816000875af1925050508015611c1d575060408051601f3d908101601f19168201909252611c1a918101906129dc565b60015b611c86573d808015611c4b576040519150601f19603f3d011682016040523d82523d6000602084013e611c50565b606091505b508051600003611c7e57604051633250574960e11b81526001600160a01b03851660048201526024016106c2565b805181602001fd5b6001600160e01b03198116630a85bd0160e11b14611cc257604051633250574960e11b81526001600160a01b03851660048201526024016106c2565b5050505050565b6060611cd482611834565b506000611cec60408051602081019091526000815290565b90506000815111611d0c5760405180602001604052806000815250611d37565b80611d1684611ebf565b604051602001611d27929190612944565b6040516020818303038152906040525b9392505050565b8080611d5257506001600160a01b03821615155b15611e14576000611d6284611834565b90506001600160a01b03831615801590611d8e5750826001600160a01b0316816001600160a01b031614155b8015611da15750611d9f81846117b6565b155b15611dca5760405163a9fbf51f60e01b81526001600160a01b03841660048201526024016106c2565b8115611e125783856001600160a01b0316826001600160a01b03167f8c5be1e5ebec7d5bd14f71427d1e84f3dd0314c0f7b2291e5b200ac8c7c3b92560405160405180910390a45b505b5050600090815260046020526040902080546001600160a01b0319166001600160a01b0392909216919091179055565b611e4f838383611f52565b6109ba576001600160a01b038316611e7d57604051637e27328960e01b8152600481018290526024016106c2565b60405163177e802f60e01b81526001600160a01b0383166004820152602481018290526044016106c2565b611eb28383611fb5565b6109ba6000848484611ba0565b60606000611ecc8361201a565b600101905060008167ffffffffffffffff811115611eec57611eec612392565b6040519080825280601f01601f191660200182016040528015611f16576020820181803683370190505b5090508181016020015b600019016f181899199a1a9b1b9c1cb0b131b232b360811b600a86061a8153600a8504945084611f2057509392505050565b60006001600160a01b038316158015906117ae5750826001600160a01b0316846001600160a01b03161480611f8c5750611f8c84846117b6565b806117ae5750506000908152600460205260409020546001600160a01b03908116911614919050565b6001600160a01b038216611fdf57604051633250574960e11b8152600060048201526024016106c2565b6000611fed8383600061187a565b90506001600160a01b038116156109ba576040516339e3563760e11b8152600060048201526024016106c2565b60008072184f03e93ff9f4daa797ed6e38ed64bf6a1f0160401b83106120595772184f03e93ff9f4daa797ed6e38ed64bf6a1f0160401b830492506040015b6d04ee2d6d415b85acef81000000008310612085576d04ee2d6d415b85acef8100000000830492506020015b662386f26fc1000083106120a357662386f26fc10000830492506010015b6305f5e10083106120bb576305f5e100830492506008015b61271083106120cf57612710830492506004015b606483106120e1576064830492506002015b600a83106103ca5760010192915050565b5080546120fe90612665565b6000825580601f1061210e575050565b601f01602090049060005260206000209081019061212c919061212f565b50565b5b808211156121445760008155600101612130565b5090565b6001600160e01b03198116811461212c57600080fd5b60006020828403121561217057600080fd5b8135611d3781612148565b60005b8381101561219657818101518382015260200161217e565b50506000910152565b600081518084526121b781602086016020860161217b565b601f01601f19169290920160200192915050565b602081526000611d37602083018461219f565b6000602082840312156121f057600080fd5b5035919050565b80356001600160a01b038116811461220e57600080fd5b919050565b6000806040838503121561222657600080fd5b61222f836121f7565b946020939093013593505050565b600060018060a01b03808a16835260e0602084015261225f60e084018a61219f565b8381036040850152612271818a61219f565b90508381036060850152612285818961219f565b969091166080840152505060a0810192909252151560c090910152949350505050565b600060018060a01b03808916835260c060208401526122ca60c084018961219f565b83810360408501526122dc818961219f565b905083810360608501526122f0818861219f565b959091166080840152505060a00152949350505050565b60008060006060848603121561231c57600080fd5b612325846121f7565b9250612333602085016121f7565b9150604084013590509250925092565b60a08152600061235660a083018861219f565b6001600160a01b03878116602085015286166040840152606083018590528281036080840152612386818561219f565b98975050505050505050565b634e487b7160e01b600052604160045260246000fd5b600067ffffffffffffffff808411156123c3576123c3612392565b604051601f8501601f19908116603f011681019082821181831017156123eb576123eb612392565b8160405280935085815286868601111561240457600080fd5b858560208301376000602087830101525050509392505050565b600082601f83011261242f57600080fd5b611d37838335602085016123a8565b6000806040838503121561245157600080fd5b82359150602083013567ffffffffffffffff81111561246f57600080fd5b61247b8582860161241e565b9150509250929050565b60006020828403121561249757600080fd5b611d37826121f7565b600080600080608085870312156124b657600080fd5b6124bf856121f7565b9350602085013567ffffffffffffffff808211156124dc57600080fd5b6124e88883890161241e565b945060408701359150808211156124fe57600080fd5b61250a8883890161241e565b9350606087013591508082111561252057600080fd5b5061252d8782880161241e565b91505092959194509250565b6020808252825182820181905260009190848201906040850190845b8181101561257157835183529284019291840191600101612555565b50909695505050505050565b801515811461212c57600080fd5b6000806040838503121561259e57600080fd5b6125a7836121f7565b915060208301356125b78161257d565b809150509250929050565b600080600080608085870312156125d857600080fd5b6125e1856121f7565b93506125ef602086016121f7565b925060408501359150606085013567ffffffffffffffff81111561261257600080fd5b8501601f8101871361262357600080fd5b61252d878235602084016123a8565b6000806040838503121561264557600080fd5b61264e836121f7565b915061265c602084016121f7565b90509250929050565b600181811c9082168061267957607f821691505b60208210810361269957634e487b7160e01b600052602260045260246000fd5b50919050565b60208082526011908201527014995c5d595cdd081b9bdd08199bdd5b99607a1b604082015260600190565b6000602082840312156126dc57600080fd5b8151611d378161257d565b6040815260006126fa604083018561219f565b90508260208301529392505050565b60006bffffffffffffffffffffffff19808a60601b1683528851612734816014860160208d0161217b565b88519084019061274b816014840160208d0161217b565b8851910190612761816014840160208c0161217b565b60609790971b9190911695016014810195909552505060288301919091526048820152606801949350505050565b601f8211156109ba57600081815260208120601f850160051c810160208610156127b65750805b601f850160051c820191505b818110156127d5578281556001016127c2565b505050505050565b815167ffffffffffffffff8111156127f7576127f7612392565b61280b816128058454612665565b8461278f565b602080601f83116001811461284057600084156128285750858301515b600019600386901b1c1916600185901b1785556127d5565b600085815260208120601f198616915b8281101561286f57888601518255948401946001909101908401612850565b508582101561288d5787850151600019600388901b60f8161c191681555b5050505050600190811b01905550565b634e487b7160e01b600052601160045260246000fd5b818103818111156103ca576103ca61289d565b6060815260006128d9606083018661219f565b82810360208401526128eb818661219f565b915050826040830152949350505050565b60006001820161290e5761290e61289d565b5060010190565b66697066733a2f2f60c81b81526000825161293781600785016020870161217b565b9190910160070192915050565b6000835161295681846020880161217b565b83519083019061296a81836020880161217b565b01949350505050565b634e487b7160e01b600052603260045260246000fd5b634e487b7160e01b600052603160045260246000fd5b6001600160a01b03858116825284166020820152604081018390526080606082018190526000906129d29083018461219f565b9695505050505050565b6000602082840312156129ee57600080fd5b8151611d378161214856fea2646970667358221220355776e25f1943b7a1052c2666d2a3d5b03975e3134589bac4f8bcfb46aeb8ca64736f6c63430008140033",
  "devdoc": {
    "details": "NFT Standard untuk aset kriya Indonesia dengan approval kurator",
    "errors": {
      "ERC721IncorrectOwner(address,uint256,address)": [
        {
          "details": "Indicates an error related to the ownership over a particular token. Used in transfers.",
          "params": {
            "owner": "Address of the current owner of a token.",
            "sender": "Address whose tokens are being transferred.",
            "tokenId": "Identifier number of a token."
          }
        }
      ],
      "ERC721InsufficientApproval(address,uint256)": [
        {
          "details": "Indicates a failure with the `operator`s approval. Used in transfers.",
          "params": {
            "operator": "Address that may be allowed to operate on tokens without being their owner.",
            "tokenId": "Identifier number of a token."
          }
        }
      ],
      "ERC721InvalidApprover(address)": [
        {
          "details": "Indicates a failure with the `approver` of a token to be approved. Used in approvals.",
          "params": {
            "approver": "Address initiating an approval operation."
          }
        }
      ],
      "ERC721InvalidOperator(address)": [
        {
          "details": "Indicates a failure with the `operator` to be approved. Used in approvals.",
          "params": {
            "operator": "Address that may be allowed to operate on tokens without being their owner."
          }
        }
      ],
      "ERC721InvalidOwner(address)": [
        {
          "details": "Indicates that an address can't be an owner. For example, `address(0)` is a forbidden owner in EIP-20. Used in balance queries.",
          "params": {
            "owner": "Address of the current owner of a token."
          }
        }
      ],
      "ERC721InvalidReceiver(address)": [
        {
          "details": "Indicates a failure with the token `receiver`. Used in transfers.",
          "params": {
            "receiver": "Address to which tokens are being transferred."
          }
        }
      ],
      "ERC721InvalidSender(address)": [
        {
          "details": "Indicates a failure with the token `sender`. Used in transfers.",
          "params": {
            "sender": "Address whose tokens are being transferred."
          }
        }
      ],
      "ERC721NonexistentToken(uint256)": [
        {
          "details": "Indicates a `tokenId` whose `owner` is the zero address.",
          "params": {
            "tokenId": "Identifier number of a token."
          }
        }
      ]
    },
    "events": {
      "Approval(address,address,uint256)": {
        "details": "Emitted when `owner` enables `approved` to manage the `tokenId` token."
      },
      "ApprovalForAll(address,address,bool)": {
        "details": "Emitted when `owner` enables or disables (`approved`) `operator` to manage all of its assets."
      },
      "BatchMetadataUpdate(uint256,uint256)": {
        "details": "This event emits when the metadata of a range of tokens is changed. So that the third-party platforms such as NFT market could timely update the images and related attributes of the NFTs."
      },
      "MetadataUpdate(uint256)": {
        "details": "This event emits when the metadata of a token is changed. So that the third-party platforms such as NFT market could timely update the images and related attributes of the NFT."
      },
      "Transfer(address,address,uint256)": {
        "details": "Emitted when `tokenId` token is transferred from `from` to `to`."
      }
    },
    "kind": "dev",
    "methods": {
      "approve(address,uint256)": {
        "details": "See {IERC721-approve}."
      },
      "approveMint(bytes32)": {
        "details": "Kurator approve request dan mint NFT",
        "params": {
          "requestId": "ID dari pending request"
        }
      },
      "balanceOf(address)": {
        "details": "See {IERC721-balanceOf}."
      },
      "constructor": {
        "details": "Constructor",
        "params": {
          "_curatorRegistry": "Address dari CuratorRegistry contract"
        }
      },
      "getApproved(uint256)": {
        "details": "See {IERC721-getApproved}."
      },
      "getMintRequest(bytes32)": {
        "details": "Get detail dari mint request"
      },
      "getPendingRequestCount()": {
        "details": "Get jumlah pending requests"
      },
      "getPendingRequests()": {
        "details": "Get semua pending request IDs"
      },
      "getTokenMetadata(uint256)": {
        "details": "Get metadata NFT"
      },
      "isApprovedForAll(address,address)": {
        "details": "See {IERC721-isApprovedForAll}."
      },
      "name()": {
        "details": "See {IERC721Metadata-name}."
      },
      "ownerOf(uint256)": {
        "details": "See {IERC721-ownerOf}."
      },
      "rejectMint(bytes32,string)": {
        "details": "Kurator reject request",
        "params": {
          "reason": "Alasan penolakan",
          "requestId": "ID dari pending request"
        }
      },
      "requestMint(address,string,string,string)": {
        "details": "Agen submit request untuk mint NFT (belum di-mint, pending approval)",
        "params": {
          "artisan": "Address pengrajin yang akan menerima NFT",
          "category": "Kategori produk kriya",
          "ipfsHash": "Hash IPFS untuk metadata JSON (foto + detail produk)",
          "regionCode": "Kode wilayah asal produk"
        },
        "returns": {
          "requestId": "ID unik untuk request ini"
        }
      },
      "safeTransferFrom(address,address,uint256)": {
        "details": "See {IERC721-safeTransferFrom}."
      },
      "safeTransferFrom(address,address,uint256,bytes)": {
        "details": "See {IERC721-safeTransferFrom}."
      },
      "setApprovalForAll(address,bool)": {
        "details": "See {IERC721-setApprovalForAll}."
      },
      "supportsInterface(bytes4)": {
        "details": "See {IERC165-supportsInterface}"
      },
      "symbol()": {
        "details": "See {IERC721Metadata-symbol}."
      },
      "tokenURI(uint256)": {
        "details": "See {IERC721Metadata-tokenURI}."
      },
      "totalSupply()": {
        "details": "Get total NFT yang sudah di-mint"
      },
      "transferFrom(address,address,uint256)": {
        "details": "See {IERC721-transferFrom}."
      }
    },
    "title": "ICAS721 (Indonesian Craft Asset - ERC721)",
    "version": 1
  },
  "userdoc": {
    "kind": "user",
    "methods": {
      "approveMint(bytes32)": {
        "notice": "Hanya kurator terverifikasi yang bisa approve"
      }
    },
    "notice": "Flow: Agen submit  Kurator approve  NFT minted ke pengrajin",
    "version": 1
  },
  "storageLayout": {
    "storage": [
      {
        "astId": 349,
        "contract": "contracts/ICAS721.sol:ICAS721",
        "label": "_name",
        "offset": 0,
        "slot": "0",
        "type": "t_string_storage"
      },
      {
        "astId": 351,
        "contract": "contracts/ICAS721.sol:ICAS721",
        "label": "_symbol",
        "offset": 0,
        "slot": "1",
        "type": "t_string_storage"
      },
      {
        "astId": 355,
        "contract": "contracts/ICAS721.sol:ICAS721",
        "label": "_owners",
        "offset": 0,
        "slot": "2",
        "type": "t_mapping(t_uint256,t_address)"
      },
      {
        "astId": 359,
        "contract": "contracts/ICAS721.sol:ICAS721",
        "label": "_balances",
        "offset": 0,
        "slot": "3",
        "type": "t_mapping(t_address,t_uint256)"
      },
      {
        "astId": 363,
        "contract": "contracts/ICAS721.sol:ICAS721",
        "label": "_tokenApprovals",
        "offset": 0,
        "slot": "4",
        "type": "t_mapping(t_uint256,t_address)"
      },
      {
        "astId": 369,
        "contract": "contracts/ICAS721.sol:ICAS721",
        "label": "_operatorApprovals",
        "offset": 0,
        "slot": "5",
        "type": "t_mapping(t_address,t_mapping(t_address,t_bool))"
      },
      {
        "astId": 1488,
        "contract": "contracts/ICAS721.sol:ICAS721",
        "label": "_tokenURIs",
        "offset": 0,
        "slot": "6",
        "type": "t_mapping(t_uint256,t_string_storage)"
      },
      {
        "astId": 3291,
        "contract": "contracts/ICAS721.sol:ICAS721",
        "label": "_tokenIds",
        "offset": 0,
        "slot": "7",
        "type": "t_uint256"
      },
      {
        "astId": 3294,
        "contract": "contracts/ICAS721.sol:ICAS721",
        "label": "curatorRegistry",
        "offset": 0,
        "slot": "8",
        "type": "t_contract(CuratorRegistry)3281"
      },
      {
        "astId": 3327,
        "contract": "contracts/ICAS721.sol:ICAS721",
        "label": "tokenMetadata",
        "offset": 0,
        "slot": "9",
        "type": "t_mapping(t_uint256,t_struct(Metadata)3306_storage)"
      },
      {
        "astId": 3332,
        "contract": "contracts/ICAS721.sol:ICAS721",
        "label": "mintRequests",
        "offset": 0,
        "slot": "10",
        "type": "t_mapping(t_bytes32,t_struct(MintRequest)3322_storage)"
      },
      {
        "astId": 3335,
        "contract": "contracts/ICAS721.sol:ICAS721",
        "label": "pendingRequestIds",
        "offset": 0,
        "slot": "11",
        "type": "t_array(t_bytes32)dyn_storage"
      },
      {
        "astId": 3339,
        "contract": "contracts/ICAS721.sol:ICAS721",
        "label": "requestIndex",
        "offset": 0,
        "slot": "12",
        "type": "t_mapping(t_bytes32,t_uint256)"
      }
    ],
    "types": {
      "t_address": {
        "encoding": "inplace",
        "label": "address",
        "numberOfBytes": "20"
      },
      "t_array(t_bytes32)dyn_storage": {
        "base": "t_bytes32",
        "encoding": "dynamic_array",
        "label": "bytes32[]",
        "numberOfBytes": "32"
      },
      "t_bool": {
        "encoding": "inplace",
        "label": "bool",
        "numberOfBytes": "1"
      },
      "t_bytes32": {
        "encoding": "inplace",
        "label": "bytes32",
        "numberOfBytes": "32"
      },
      "t_contract(CuratorRegistry)3281": {
        "encoding": "inplace",
        "label": "contract CuratorRegistry",
        "numberOfBytes": "20"
      },
      "t_mapping(t_address,t_bool)": {
        "encoding": "mapping",
        "key": "t_address",
        "label": "mapping(address => bool)",
        "numberOfBytes": "32",
        "value": "t_bool"
      },
      "t_mapping(t_address,t_mapping(t_address,t_bool))": {
        "encoding": "mapping",
        "key": "t_address",
        "label": "mapping(address => mapping(address => bool))",
        "numberOfBytes": "32",
        "value": "t_mapping(t_address,t_bool)"
      },
      "t_mapping(t_address,t_uint256)": {
        "encoding": "mapping",
        "key": "t_address",
        "label": "mapping(address => uint256)",
        "numberOfBytes": "32",
        "value": "t_uint256"
      },
      "t_mapping(t_bytes32,t_struct(MintRequest)3322_storage)": {
        "encoding": "mapping",
        "key": "t_bytes32",
        "label": "mapping(bytes32 => struct ICAS721.MintRequest)",
        "numberOfBytes": "32",
        "value": "t_struct(MintRequest)3322_storage"
      },
      "t_mapping(t_bytes32,t_uint256)": {
        "encoding": "mapping",
        "key": "t_bytes32",
        "label": "mapping(bytes32 => uint256)",
        "numberOfBytes": "32",
        "value": "t_uint256"
      },
      "t_mapping(t_uint256,t_address)": {
        "encoding": "mapping",
        "key": "t_uint256",
        "label": "mapping(uint256 => address)",
        "numberOfBytes": "32",
        "value": "t_address"
      },
      "t_mapping(t_uint256,t_string_storage)": {
        "encoding": "mapping",
        "key": "t_uint256",
        "label": "mapping(uint256 => string)",
        "numberOfBytes": "32",
        "value": "t_string_storage"
      },
      "t_mapping(t_uint256,t_struct(Metadata)3306_storage)": {
        "encoding": "mapping",
        "key": "t_uint256",
        "label": "mapping(uint256 => struct ICAS721.Metadata)",
        "numberOfBytes": "32",
        "value": "t_struct(Metadata)3306_storage"
      },
      "t_string_storage": {
        "encoding": "bytes",
        "label": "string",
        "numberOfBytes": "32"
      },
      "t_struct(Metadata)3306_storage": {
        "encoding": "inplace",
        "label": "struct ICAS721.Metadata",
        "members": [
          {
            "astId": 3297,
            "contract": "contracts/ICAS721.sol:ICAS721",
            "label": "regionCode",
            "offset": 0,
            "slot": "0",
            "type": "t_string_storage"
          },
          {
            "astId": 3299,
            "contract": "contracts/ICAS721.sol:ICAS721",
            "label": "artisanAddress",
            "offset": 0,
            "slot": "1",
            "type": "t_address"
          },
          {
            "astId": 3301,
            "contract": "contracts/ICAS721.sol:ICAS721",
            "label": "curatorAddress",
            "offset": 0,
            "slot": "2",
            "type": "t_address"
          },
          {
            "astId": 3303,
            "contract": "contracts/ICAS721.sol:ICAS721",
            "label": "timestamp",
            "offset": 0,
            "slot": "3",
            "type": "t_uint256"
          },
          {
            "astId": 3305,
            "contract": "contracts/ICAS721.sol:ICAS721",
            "label": "category",
            "offset": 0,
            "slot": "4",
            "type": "t_string_storage"
          }
        ],
        "numberOfBytes": "160"
      },
      "t_struct(MintRequest)3322_storage": {
        "encoding": "inplace",
        "label": "struct ICAS721.MintRequest",
        "members": [
          {
            "astId": 3309,
            "contract": "contracts/ICAS721.sol:ICAS721",
            "label": "artisan",
            "offset": 0,
            "slot": "0",
            "type": "t_address"
          },
          {
            "astId": 3311,
            "contract": "contracts/ICAS721.sol:ICAS721",
            "label": "regionCode",
            "offset": 0,
            "slot": "1",
            "type": "t_string_storage"
          },
          {
            "astId": 3313,
            "contract": "contracts/ICAS721.sol:ICAS721",
            "label": "category",
            "offset": 0,
            "slot": "2",
            "type": "t_string_storage"
          },
          {
            "astId": 3315,
            "contract": "contracts/ICAS721.sol:ICAS721",
            "label": "ipfsHash",
            "offset": 0,
            "slot": "3",
            "type": "t_string_storage"
          },
          {
            "astId": 3317,
            "contract": "contracts/ICAS721.sol:ICAS721",
            "label": "submittedBy",
            "offset": 0,
            "slot": "4",
            "type": "t_address"
          },
          {
            "astId": 3319,
            "contract": "contracts/ICAS721.sol:ICAS721",
            "label": "submittedAt",
            "offset": 0,
            "slot": "5",
            "type": "t_uint256"
          },
          {
            "astId": 3321,
            "contract": "contracts/ICAS721.sol:ICAS721",
            "label": "exists",
            "offset": 0,
            "slot": "6",
            "type": "t_bool"
          }
        ],
        "numberOfBytes": "224"
      },
      "t_uint256": {
        "encoding": "inplace",
        "label": "uint256",
        "numberOfBytes": "32"
      }
    }
  }
}